S02B0000433A5C55736572735C6D616F725C4465736B746F705C746573745C74656D706F5F76325C4465627528
S315080000000018002021020008C1140008C5140008C1
S3150800001000000000000000000000000000000000D2
S31508000020000000000000000000000000C9140008DD
S315080000300000000000000000CD140008D1140008DC
S315080000409102000891020008910200089102000836
S315080000509102000891020008910200089102000826
S315080000609102000891020008910200089102000816
S315080000709102000891020008910200089102000806
S31508000080910200080000000000000000910200082C
S315080000900000000091020008910200089102000881
S315080000A00000000091020008910200089102000871
S315080000B0910200080000000091020008DD14000803
S315080000C010B5064C2378002B07D1054B002B02D020
S315080000D0044800E000BF0123237010BD1C00002067
S315080000E00000000094160008044B10B5002B03D03E
S315080000F00349044800E000BF10BDC04600000000E8
S315080001002000002094160008002243088B4274D36E
S3150800011003098B425FD3030A8B4244D3030B8B42FA
S3150800012028D3030C8B420DD3FF22090212BA030C03
S315080001308B4202D31212090265D0030B8B4219D3E4
S3150800014000E0090AC30B8B4201D3CB03C01A524104
S31508000150830B8B4201D38B03C01A5241430B8B424C
S3150800016001D34B03C01A5241030B8B4201D30B0335
S31508000170C01A5241C30A8B4201D3CB02C01A52415C
S31508000180830A8B4201D38B02C01A5241430A8B421F
S3150800019001D34B02C01A5241030A8B4201D30B0208
S315080001A0C01A5241CDD2C3098B4201D3CB01C01A22
S315080001B0524183098B4201D38B01C01A524143092C
S315080001C08B4201D34B01C01A524103098B4201D31A
S315080001D00B01C01A5241C3088B4201D3CB00C01A87
S315080001E0524183088B4201D38B00C01A52414308FF
S315080001F08B4201D34B00C01A5241411A00D2014624
S31508000200524110467047FFE701B5002000F006F896
S3150800021002BDC0460029F7D076E770477047C0464A
S315080002201348854604200168090E1F22914205D10C
S31508000230104801210160104800210160002103E0F7
S315080002400E4B5B58435004310D480E4B42189A42E8
S31508000250F6D30D4A02E00023136004320B4B9A4290
S31508000260F9D301F03DF901F0DDF900F051FFFEE7A1
S31508000270001800201810024000000140241700084A
S31508000280000000201C0000201C000020A4050020FF
S31508000290FEE7000010B5040000F03EFEFA218900D2
S315080002A0FFF732FF00F098F90120002221004042B2
S315080002B000F05EF9002010BD1023064A10B511683B
S315080002C000200B431360FFF7E5FF01F0B7F80020A5
S315080002D010BDC04600200240024A1368013313606D
S315080002E07047C04640040020014B18687047C04656
S315080002F04004002010B582B00190FFF7F5FF040016
S31508000300FFF7F2FF019B001B9842F9D302B010BD1C
S31508000310F8B5041E00D17FE0436C002B66D0636CF1
S31508000320DB065DD4042523689A68154058D1616CAC
S31508000330474A0A4002210A4362649A6801310A4020
S31508000340012A59D01821DA688A43A1680A43DA6073
S315080003501A696168920092080A431A61D9683D4A87
S31508000360276A0A40DA60A2697E039103E269D2032A
S315080003700A43616B0139481E81410803E1680A4353
S3150800038021693243022959D0216B49000A43616A1F
S3150800039002432A4301294BD0C220A16AFF30814279
S315080003A002D0E06A01430A438020D9684005114318
S315080003B0D960A16B814226D0481E062823D9D96860
S315080003C0254B0B409A4229D01222636C0120934395
S315080003D0023A134363640123A26C1343A36404E043
S315080003E010230120626C13436364F8BD40228364C2
S315080003F0835401F043F892E719680A42AED1DA68E5
S3150800040012049FD5AAE7072558692940A8435861C9
S31508000410586901435961D2E70120E6E70023032220
S31508000420A364636C00209343023A13436364DCE7D6
S31508000430002F05D1802149020A43ADE70425A3E729
S315080004402020656C28436064A06C0143A164A3E77F
S31508000450FDFEFFFF1902FEFFE7FF3F83002370B58D
S3150800046082B001934033C25C04000220012A3CD0CA
S315080004700122A06BE25423689D686D072DD4354D83
S315080004804E68AE4233D00E689D6AB2402A439A62DD
S315080004908022520590420FD0013806280CD9072031
S315080004A08A68596901408A4206D0596902408143DF
S315080004B0596159690A435A613300103B022B29D8FE
S315080004C0254A1368102E27D08022112E3CD05204BC
S315080004D01343214A0020136004E020230120626CA4
S315080004E01343636400224023E25402B070BD0968D6
S315080004F0986A8A40904398620B00103B022B09D8F1
S31508000500154B1A68102921D0112921D0134B1340F5
S31508000510114A13600020E5E7802109040B431360A4
S315080005200F4B10491868FFF7EFFD830018184000B5
S315080005300190019B002BEDD0019B013B0193019B90
S31508000540002BF9D10020CDE7D203C1E7064BDEE741
S31508000550064BDCE70110000008270140FFFFFFFEFD
S315080005601800002040420F00FFFF7FFFFFFFBFFF7C
S3150800057070B5002814DB032483082040FC342600C9
S31508000580134AC0259446C00089018640214081400F
S315080005909B006344AD005A59B2431143595170BD8B
S315080005A003240F23C0B203402040FC342500094A27
S315080005B0C00094468901854021408140083B9B083C
S315080005C09B006344DA69AA431143D961E7E7C04649
S315080005D000E100E000ED00E00A4A431E01209342D4
S315080005E00ED8C020084A094953600B6A00061B0248
S315080005F01B0A03430B620023002093600733136032
S315080006007047C046FFFFFF0010E000E000ED00E085
S31508000610042805D00421054A13688B4313607047E4
S31508000620024B1A6810431860F9E7C04610E000E06C
S315080006307047C04610B5FFF7FBFF10BDF0B55F4623
S3150800064056464D464446F0B40B6885B08B469C46E4
S315080006500022002B00D1B2E0604BE1469A46604B7F
S31508000660984665E0016856008C460321B140644609
S31508000670C9430C40A44603241C40B440674627439C
S315080006800760019F013F012F7CD95C46C568294058
S31508000690A568B5402943C160802149050B4243D06E
S315080006A0514601248969032721435446A161A1695A
S315080006B001240F2621404B4C1740A446BF00BE40DC
S315080006C09024039103999108890061448D68E40593
S315080006D0B543A04200D179E0434EB04200D177E05D
S315080006E0424EB04200D176E00526BE4035438D60C5
S315080006F04146009C0968E543DC035DD4294044462D
S31508000700216061689C0354D4294044466160A1680D
S31508000710DC024BD429404446A160E1689B0242D4DE
S3150800072029400C004346DC604B460132D34046D094
S3150800073001254C4695402C400094F5D05B465B68F5
S3150800074010211F008F43391E019702298AD10F24D1
S315080007500531114089008C40D708BF00C7193E6A89
S31508000760A6435C4624698C40210031433962032143
S315080007705600B1400324C9431C40B44007680F40E3
S31508000780274307605C46E4688768B4400F40274300
S31508000790012487604768AF433D001F0927409740FB
S315080007A03D43456071E7009C0C43BBE7009C214331
S315080007B0B1E7009C2143A8E7009C21439FE705B0C9
S315080007C03CBC90469946A246AB46F0BD00268DE74E
S315080007D00126BE408AE70226BE4087E7001002408F
S315080007E000040140000001400004004800080048D9
S315080007F0F0B54F464646C0B4036883B00400DA072E
S315080008002FD50C20C5494A680240042A00D141E187
S315080008104A680240082A00D133E16368012B00D1F7
S31508000820A3E1002B00D13FE1052B00D1FBE1BB4B37
S31508000830BB4A19680A401A601968BA4A0A401A6017
S31508000840FFF752FD80250700B44EAD0205E0FFF71D
S315080008504BFDC01B642800D96CE133682B42F6D0E7
S3150800086023689A072AD50C21AC4A5068014200D160
S31508000870EBE050680140082900D1DDE0E368A74DA8
S31508000880002B00D178E101232A68022713432B6045
S31508000890FFF72AFD060005E0FFF726FD801B022864
S315080008A000D947E12B689D4A1F42F5D0F820136806
S315080008B021698343C9000B43136023681A0700D5CF
S315080008C0A2E05A0740D580230020944A5B05D169E7
S315080008D08046194208D1D1691943D161D2691340BA
S315080008E00193019B0123984680278F4E7F0033682A
S315080008F03B4200D1FDE0A368012B00D109E1002BA2
S3150800090000D119E1052B00D1F0E10121834B1A6AC8
S315080009108A431A621A6A03318A431A62FFF7E4FCA9
S315080009207E4F81460226814D06E0FFF7DDFC4B46E9
S31508000930C01AA84200D9FDE03B6A1E42F5D04346DC
S31508000940012B00D168E12368DA0612D56269012A0B
S3150800095000D1ABE1053200D021E10420F8256F492A
S315080009604A6B82434A634A6BA069AA43C0000243A2
S315080009704A639B0622D50C21684A53680B400C2B08
S3150800098000D12BE153680B40082B00D11FE1236AE5
S31508000990624D002B00D12CE180266B6B7602334327
S315080009A06B63FFF7A1FC070005E0FFF79DFCC01B82
S315080009B0022800D9BEE06B6B3342F6D0636A002B7F
S315080009C01CD00C21554D6A680A40082A44D02A686A
S315080009D0022B00D133E1564B2C0013402B60FFF756
S315080009E083FC80250600AD0405E0FFF77DFC801B2F
S315080009F0022800D99EE023682B42F6D1002003B0D6
S31508000A000CBC90469946F0BDE369444D002B25D0B1
S31508000A1001236A6A022613436B62FFF765FC070027
S31508000A2005E0FFF761FCC01B022800D982E06B6A6B
S31508000A301E42F6D0236844E75168C02252020A4093
S31508000A40802109028A4200D018E7344A12689207C0
S31508000A5043D5E268012A40D00120D0E701226B6A1B
S31508000A60022693436B62FFF73FFC070004E0FFF79B
S31508000A703BFCC01B02285DD86B6A1E42F7D123686F
S31508000A801FE7C022496852020A40802149028A4269
S31508000A9000D0C2E6214A1268920300D4E1E66268F1
S31508000AA0002A00D0DDE6D7E71C4D1D4B2A688026B4
S31508000AB013402B602A681B4BB60213402B60FFF7C6
S31508000AC013FC070004E0FFF70FFCC01B642831D8AD
S31508000AD02B683342F7D12368C3E6F8250F48216906
S31508000AE00268C900AA430A4302601A0700D4E8E666
S31508000AF08AE733683B433360FFF7F6FB050004E0FB
S31508000B00FFF7F2FB401B642814D833683B42F7D042
S31508000B10F1E6024A116A0B431362FFE6001002402F
S31508000B20FFFFFEFFFFFFFBFF007000408813000079
S31508000B30FFFFFFFE032062E70122714E0227336A98
S31508000B40704D93433362336A033293433362FFF73C
S31508000B50CBFB814605E0FFF7C7FB4B46C01AA84208
S31508000B60E8D8336A1F42F6D1E9E68021644A490289
S31508000B7013680B43136063E601222B68022693432E
S31508000B802B60FFF7B1FB070004E0FFF7ADFBC01BC6
S31508000B900228CFD82B681E42F7D123688EE6042395
S31508000BA0574D02266A6B134301226B636B6B9343A3
S31508000BB06B63FFF799FB070004E0FFF795FBC01B83
S31508000BC00228B7D86B6B1E42F7D12368D1E6536863
S31508000BD0C02252021340934200D0D8E6484B5B6BC2
S31508000BE0DB0300D4EAE6236A012B00D1E6E60120FE
S31508000BF005E76A6B444B802613406B63FFF774FB6B
S31508000C007602070004E0FFF76FFBC01B022891D8A5
S31508000C106B6B3342F7D1D1E6394A3C4BD1690B406D
S31508000C20D361236890E68021354BC9021A680A43C6
S31508000C3080211A601A6849020A431A6000E6344B92
S31508000C40802713402B60FFF74FFBBF04804606E062
S31508000C50FFF74AFB4346C01A022800D96AE72B6801
S31508000C60274E3B42F4D10F22F36A9343226B134378
S31508000C70F362A26AE16A73681143264A8024134024
S31508000C8080220B4373603368520413433360FFF7C3
S31508000C902BFBA404050005E0FFF726FB401B0228F2
S31508000CA000D947E733682342F6D0A7E60423144D54
S31508000CB00227696B0B436B636B6B1A436A63FFF717
S31508000CC013FB060005E0FFF70FFB801B022800D97F
S31508000CD030E76B6B0A4A1F42F5D0F820536BA169BF
S31508000CE08343C9000B435363236842E60422044B3B
S31508000CF0196A0A431A620122196A0A431A620DE638
S31508000D000010024088130000FFFFFEFFFFFFFFEF01
S31508000D10FFFFFFFEFF7FC2FF30B51C4C89B01022D3
S31508000D202100684600F0A4FC21001022103104A816
S31508000D3000F09EFC0C2316494A681340082B06D07F
S31508000D400C2B02D0134809B030BD1348FBE70F251A
S31508000D506B46900C28401C5CCB6A102069462B40D9
S31508000D600918C95CC02380205B021A4040028242EF
S31508000D7001D09A4204D00748FFF7C6F96043E2E774
S31508000D800548FFF7C1F96043DDE7C046AC16000821
S31508000D900010024000127A00006CDC02F8B54646E4
S31508000DA04F460C000121564AC0B4136806000B4092
S31508000DB0A3420CD213688B4323431360136819406C
S31508000DC08C4204D001200CBC90469946F8BD336885
S31508000DD09A0706D5F0204B494A688243B068024311
S31508000DE04A60DB0728D57368464A012B50D0022B88
S31508000DF048D0032B60D012689207E3D50321414DF2
S31508000E006A688A4313436B60FFF76EFA73680700D4
S31508000E10012B41D0022B53D0032B61D00C239846CB
S31508000E20394B994604E0FFF75FFAC01B48452DD8B1
S31508000E3042466B681A42F6D10121314A13680B40C3
S31508000E409C4205D213688B43136013681942B9D1C3
S31508000E5033685B0706D52B492C4B4A681340F26862
S31508000E6013434B60FFF758FF264B294A5B681B065E
S31508000E701B0FD35CD840274B18600020FFF70AFAEF
S31508000E800020A0E712689201B8D49BE703209AE7EE
S31508000E9012689203B2D495E70B3398461A4B9946D3
S31508000EA004E0FFF721FAC01B4845EFD842466B68B5
S31508000EB01340042BF5D1BFE7526BD2039ED481E7CA
S31508000EC00A339846104B994604E0FFF70DFAC01B03
S31508000ED04845DBD842466B681340082BF5D1ABE78B
S31508000EE009339846084B994604E0FFF7FDF9C01BFD
S31508000EF04845CBD842466B6813400C2BF5D19BE787
S31508000F00002002400010024088130000FFF8FFFF8F
S31508000F10D416000818000020014B18687047C04610
S31508000F2018000020F0B54F464646C0B4036883B0A3
S31508000F300400DA0339D580230020464A5B05D169C7
S31508000F408046194208D1D1691943D161D269134043
S31508000F500193019B0123984680263F4D76002B6816
S31508000F6033425ED0C0213B4D89002B6A0B4056D0D8
S31508000F70626811408B420ED08026286A296A76025A
S31508000F80314329622E6A354B35490340314029627F
S31508000F902B62C30734D42F49304B086A03401A43DF
S31508000FA043460A62012B4CD02368DA0706D503208C
S31508000FB028490A6B8243A06802430A639A0606D543
S31508000FC0102024490A6B8243E06802430A639A03A5
S31508000FD00ED400205B0506D540221E490B6B9343B1
S31508000FE0226913430B6303B00CBC90469946F0BDC7
S31508000FF0802018490A6B8243606902430A63E8E75E
S31508001000FFF772F9174B07000226994604E0FFF727
S315080010106BF9C01B48451AD82B6A1E42F7D062687E
S31508001020B9E72B6833432B60FFF75EF9070004E046
S31508001030FFF75AF9C01B642809D82B683342F7D042
S3150800104090E7CA69084B1340CB612368ADE70320D4
S31508001050C9E7C0460010024000700040FFFCFFFFD1
S31508001060FFFFFEFF88130000FFFFFFEF70B5244B5C
S315080010700E041C68234B65682B4063606568224B29
S315080010802B40636063680D003343636063689B0AA3
S315080010909B02636063681A43626062681B4B134075
S315080010A08022636063689201134302226360A36926
S315080010B01A42FCD1A2690123D2061ED40122A369D1
S315080010C01A42FCD002220378A362A3691A42FCD012
S315080010D00139C9B20122002909D06B1AC35CA3627F
S315080010E0A3691A42FCD00139C9B20029F5D1802278
S315080010F06368D201134363600023180070BDC046BD
S3150800110000000020FFFBFFFFFFFF00FFFFFFFFFDC2
S3150800111000B583B0FF226B46DA71FFF7CDF800F011
S315080011200FF800F039F900F055F800F085F800F0EE
S31508001130D7F800F041FAFA204000FFF7DBF8FAE7A3
S31508001140102210B598B00F921192802212023A23FB
S315080011501592802202240B931203393B0BA80E9397
S31508001160139310931293149416921793FFF740FB58
S31508001170002800D0FEE7072303900490002101A869
S3150800118001930294FFF70AFE002800D0FEE7104BF1
S315080011900890059380230A909B0005A80693FFF7FD
S315080011A0C1FE002800D0FEE7FFF7B6FEFA21890047
S315080011B0FEF7AAFFFFF710FA0420FFF729FA012025
S315080011C0002200214042FFF7D3F918B010BDC046EF
S315080011D020000300042110B5154C164B6161C2218D
S315080011E001222360002384B0FF3120006360A360DE
S315080011F0E3602261A361E36123626362A162E36241
S3150800120023636263FFF784F8002800D0FEE7022311
S31508001210019380235B010293802301A95B052000CB
S315080012200393FFF71BF9002800D0FEE704B010BDB2
S3150800123054050020002401408021FF20234B70B56F
S31508001240DA6989030A43DA61DA6982B00A400192E7
S31508001250019A1A690F260A431A6119691C4A402419
S315080012600A401A611B4B1B681A6882431A601A4A9D
S315080012701268150020352979314021430424297143
S315080012806979B143214369710C259178A9430825E9
S315080012902943CF25294020252943917002215579D4
S315080012A029430C4354710B2219690A4380211A6198
S315080012B01A6989000A431A615968084A0A405A6035
S315080012C01A681043186002B070BDC046001002408C
S315080012D0FFFFDFFF0000002010000020FFF7FFFFE0
S315080012E08021294B70B59A6949010A439A619A691E
S315080012F082B00A400192019ADA683F260A43DA6008
S31508001300D968224A40250A40DA60214B0F211B681A
S315080013106D421A00203250780840507000209070B4
S315080013201A788038324002431A705A7883308243DA
S3150800133002200243F3200240082002435A70C722C3
S3150800134018795C7A02401A711A7A2A431A720322A9
S3150800135014430C2214430F4A5C721268140020349A
S31508001360E0790840E0714020D178314001437F2080
S31508001370D170517901405171DA7A2A43DA7200F054
S3150800138041F802B070BDC04600100240FFEFFFFFF3
S3150800139004000020100000208022174B9202596991
S315080013A082B011435961596940200A400092009A57
S315080013B080225969D202114359613F215B691A405B
S315080013C00192019B0D4B1B681A780A4002431A705A
S315080013D01A7B0A401A731A7A0A401A72084B3C3961
S315080013E01B681A788A431A701A7B8A431A731A7A00
S315080013F08A431A7202B07047001002400C0000209F
S315080014000800002001210C4B00201B681A680A40BE
S315080014101A60142219680A43F3211A605A688A4323
S31508001420E1215A605A68C9000A435A60402219687D
S315080014300A431A607047C0461400002001200E4A6D
S3150800144000B5916983B00143916193690021034016
S31508001450019300220638019BFFF78AF80220002232
S3150800146000214042FFF784F8012000220021404273
S31508001470FFF77EF803B000BD0010024000B5026811
S315080014800D4B87B09A4201D007B000BD80230B4AA6
S315080014909B009169902019439161926901A91340B3
S315080014A00093009B04230193013B02930023C0058C
S315080014B00393FFF7C3F8E7E7002401400010024052
S315080014C07047C046FEE7C0467047C0467047C046EC
S315080014D010B5FEF701FFFFF7ADF810BD7047C0461F
S315080014E00121114B1A680A431A6058680F4A0240CC
S315080014F05A6018680E4A02401A6018680D4A024077
S315080015001A6058680C4A02400F205A60DA6A824309
S31508001510DA62186B094A02401A635A6B8A435A639D
S3150800152000229A607047C046001002400CB8FF08B7
S31508001530FFFFF6FEFFFFFBFFFFFFC0FF2CFEFFFFCE
S31508001540F0B5474680B4A4B001AD06221849280074
S3150800155000F08EF84023B0249846164F03AE782242
S31508001560022128006C70FFF781FD6B467822022164
S31508001570581DFFF77BFD6B4678220221981DFFF761
S3150800158075FD434633700D236B44390080221800DD
S31508001590013400F06DF8E4B2782281213000FFF7BB
S315080015A065FD8037B82CDAD124B004BC9046F0BD6E
S315080015B0CC16000838000020134A14491368144B47
S315080015C070B51B688B421DD012498B421AD0124C3B
S315080015D0250038352000782202210234FFF746FD1F
S315080015E0A542F7D180220021D2000C4800F049F824
S315080015F0FFF7A6FF00220A4B00201A805A80013204
S315080016005A7170BD1368E2E7A00500200095BA0A72
S315080016101800002000E1F505E4160008380000204F
S31508001620380400200E4B70B500251E000D4CE41A38
S31508001630A410A54204D0AB00F35898470135F8E743
S3150800164000F028F8084B00251E00084CE41AA410E0
S31508001650A54204D0AB00F35898470135F8E770BDAA
S315080016601C1700081C1700081C170008201700087C
S31508001670002310B59A4203D0CC5CC4540133F9E771
S3150800168010BD03008218934202D019700133FAE79D
S3150800169070470000F8B5C046F8BC08BC9E467047BF
S311080016A0F8B5C046F8BC08BC9E4670476A
S315080016AC02030405060708090A0B0C0D0E0F101089
S315080016BC0102030405060708090A0B0C0D0E0F1088
S315080016CC00B0000000100000000000000000000040
S315080016DC010203040607080900AE0020001000B03A
S315080016EC00C8000000100040008100FF00A100A601
S315080016FC00A8003F00A400D3000000D500F000D9D4
S3150800170C002200DA001200DB0020008D001400AF66
S3090800171CE9000008CA
S30908001720C1000008EE
S315080017240054004000040048000400480000004833
S31108001734000000480030014000127A0056
S70508000221CF
